:020000040000FA
:100000008316031371308F008316031304308500A9
:1000100030308600FF3087008316031320309800AD
:1000200000309B0033309900831290309800831683
:10003000031370309F0083120317F4309E000730C3
:100040009F0000249030A60050239430A600502337
:100050009830A60050239C30A6005023A030A60064
:100060005023A430A6005023A830A6005023883087
:10007000A60050235024FF30A000FF30A1005021E3
:0A0080005021502150215021212869
:0E02A000831203138108810081089100080079
:1006A0008312031326089F001F140000000000009F
:1006B000000000000000000000000000000000003A
:1006C00000009F149F1C622B2608A3001E08A50093
:0C06D000831603131E08A50090270800E5
:10080000831603130512831203130512FF30A00091
:100810000530A10050210516FF30A000C330A10013
:1008200050218E018F0105128316031305168312C2
:10083000031702309B000313C13090002130A30046
:100840000E08A4000F08A500902783120313FF30A1
:0A085000A000C330A10050210800F1
:1008A00083120313071A5C2CB030A3004F30A5004D
:1008B0005030A4009027632CB030A3004930A5002D
:1008C0004E30A4009027871A6D2CB430A3004F300F
:1008D000A5005030A4009027742CB430A3004930F8
:0A08E000A5004E30A4009027080088
:100F200083120313FB30990083169900831623085C
:100F300099008316250899008316240899008316C2
:080F400024309900831608001B
:02400E00D433A9
:00000001FF
