:020000040000FA
:10000000831203179E0183160313870171308F003B
:1000100000308500831203130030850000000000CB
:1000200000000000103085000130A000A00B19284E
:100030002228FF30A100FF30A200A10B1D28A20B37
:100040001F2816288E018F010030850083160313A8
:1000500095013F3085008312031702309B00031384
:10006000C13090000E0887000A30A1004230A20083
:100070004030A300A4000E088700A10B43280328EA
:0E008000A20B43283B28A30B43284028082846
:02400E00D430AC
:00000001FF
