:020000040000FA
:100000008316FF308500870110309F008312831212
:100010000317FF309E008312031301309F001A2044
:1000200046209F149F1C12281E082720A000200E87
:100030008700102821308400AB01AC01A101A2018E
:10004000A301A401A501A601A701A8010800AF0012
:100050000008AB02031CAC032F088000AB07031899
:10006000AC0A840A0408293A2130031984000310D9
:100070002C0CAE002B0CAD000310AE0CAD0C03101D
:10008000AE0CAD0C0318AD0A2D080800A90B4628CC
:06009000AA0B462808003F
:02400E00D430AC
:00000001FF
