:020000040000FA
:100000008316031371308F0083160313203098007A
:1000100000309B00333099008312903098005022BA
:020020000F28A7
:1004A0000030831203179E1183160313003085005A
:1004B0008312031300308500FF3081000530910066
:1004C000810B602A910B602A10308500FF3081007B
:1004D000FF309100810B6A2A910B6A2A8E018F01ED
:1004E00000308500831603133F3085008312031705
:1004F00002309B000313C1309000051E7D2A051AAF
:100500007F2A2130A0000E08A1000F08A20090272A
:10051000FF30810015309100810B8C2A910B8C2AC1
:020520000800D1
:100F200083120313FB3099008316981C952F8312AC
:100F300099008316981C9A2F831220089900831613
:100F4000981CA02F8312220899008316981CA62FA4
:100F50008312210899008316981CAC2F8312243029
:0C0F600099008316981CB22F8312080021
:02400E00D433A9
:00000001FF
